:100000000C9424010C9441010C9441010C94410185
:100010000C94B4010C94C9010C9441010C9441015D
:100020000C9441010C9441010C9441010C94410148
:100030000C9441010C9441010C9443010C94410136
:100040000C9441010C9441010C9441010C94410128
:100050000C9441010C9441010C9441010C94410118
:100060000C9441010C944101000000000000005F6D
:1000700000000007000700147F147F14242A7F2A41
:10008000122313086462364955225000050300000C
:10009000001C2241000041221C0014083E081408E4
:1000A000083E0808005030000008080808080060F2
:1000B00060000020100804023E5149453E00427F86
:1000C000400042615149462141454B311814127F8D
:1000D0001027454545393C4A494930017109050316
:1000E0003649494936064949291E0036360000007E
:1000F0005636000008142241001414141414004150
:100100002214080201510906324979413E7E11113B
:10011000117E7F494949363E414141227F4141227A
:100120001C7F494949417F090909013E4149497AF2
:100130007F0808087F00417F41002040413F017F48
:10014000081422417F404040407F020C027F7F0420
:1001500008107F3E4141413E7F090909063E415159
:10016000215E7F09192946464949493101017F012C
:10017000013F4040403F1F2040201F3F4038403F4C
:100180006314081463070870080761514945430068
:100190007F41410002040810200041417F00040219
:1001A0000102044040404040000102040020545439
:1001B00054787F48444438384444442038444448C0
:1001C0007F3854545418087E0901020C5252523E92
:1001D0007F0804047800447D40002040443D007FB7
:1001E0001028440000417F40007C041804787C08FB
:1001F00004047838444444387C1414140808141453
:10020000187C7C080404084854545420043F44409B
:10021000203C4040207C1C2040201C3C4030403C86
:1002200044281028440C5050503C4464544C440022
:100230000836410000007F00000041360800100829
:10024000081008000000000011241FBECFEFD8E006
:10025000DEBFCDBF11E0A0E0B1E0E6E7FBE102C008
:1002600005900D92AA33B107D9F723E0AAE3B1E0D4
:1002700001C01D92AE34B207E1F70E941E070C9434
:10028000B90D0C9400001F920F920FB60F9211241B
:10029000CF92DF92EF92FF922F933F934F935F9312
:1002A0006F937F938F939F93AF93BF93EF93FF933E
:1002B000C0905001D0905101E0905201F090530154
:1002C0008FEFC81AD80AE80AF80AC0925001D092F3
:1002D0005101E0925201F0925301C701B60122E3AD
:1002E00030E040E050E00E949E0A672B682B692BAB
:1002F00019F081E080934B01C701B6012CE231E097
:1003000040E050E00E949E0A672B682B692B19F091
:1003100081E080934A012091450130E040E050E0C7
:10032000C701B6010E949E0A672B682B692B39F022
:1003300081E090914601911180E080934601FF9108
:10034000EF91BF91AF919F918F917F916F915F914D
:100350004F913F912F91FF90EF90DF90CF900F90B2
:100360000FBE0F901F9018951F920F920FB60F920D
:1003700011248F939F9381E090914701911180E028
:10038000809347019F918F910F900FBE0F901F9008
:1003900018951F920F920FB60F921124CF92DF92F1
:1003A000EF92FF922F933F934F935F936F937F93BF
:1003B0008F939F93AF93BF93EF93FF934A9929C075
:1003C000C0905001D0905101E0905201F090530143
:1003D0008091410190914201A0914301B09144016B
:1003E000A7019601281B390B4A0B5B0B60E67AEEDE
:1003F00080E090E00E949E0A30934F0120934E01CE
:10040000C0924101D0924201E0924301F092440136
:100410008CC04C9933C080914D01813071F028F02F
:10042000823099F08330C9F01FC081E090914C0177
:10043000911180E080934C0117C0809102018930B6
:1004400098F48F5F809302010FC080910001893082
:1004500058F48F5F8093000107C0809101018930BB
:1004600018F48F5F809301012FEF83EC99E0215006
:1004700080409040E1F700C0000057C04D9933C064
:1004800080914D01813071F028F0823099F08330F5
:10049000C9F01FC081E090914C01911180E08093E0
:1004A0004C0117C080910201823098F081508093F6
:1004B00002010FC080910001823058F0815080937A
:1004C000000107C080910101823018F081508093B3
:1004D00001012FEF83EC99E0215080409040E1F73B
:1004E00000C0000022C04E9920C080914C0188239A
:1004F00099F080914001882351F090914D01933003
:1005000020F49F5F90934D0102C010924D0191E045
:10051000811190E0909340012FEF83EC99E02150FE
:1005200080409040E1F700C00000FF91EF91BF9143
:10053000AF919F918F917F916F915F914F913F917B
:100540002F91FF90EF90DF90CF900F900FBE0F9004
:100550001F9018958F929F92AF92BF92CF92DF9289
:10056000EF92FF92CF93DF93CDB7DEB762970FB6CE
:10057000F894DEBF0FBECDBF22E1E3E0F1E0DE0183
:10058000119601900D922A95E1F7E0913F0128EE36
:10059000E29F202D112420934501F0E0EE0FFF1F74
:1005A00021E030E02C0F3D1FE20FF31F208131814D
:1005B0002F703327232B19F02BB121602BB9E09139
:1005C0003F01F0E0EE0FFF1F21E030E02C0F3D1F58
:1005D000E20FF31F20813181207F3327232B19F075
:1005E0002BB12E7F2BB9E0913F01F0E0EE0FFF1F02
:1005F00021E030E02C0F3D1FE20FF31F208125B9D1
:10060000E0913F01F0E0EE0FFF1F21E030E02C0F02
:100610003D1FE20FF31F2081318130FF04C02BB159
:1006200020682BB903C02BB12F772BB920913F0144
:10063000243098F52BB12D7F2BB9C0903B01D09081
:100640003C01E0903D01F0903E01AB01BC014C1932
:100650005D096E097F09209102018AEF289F9001B0
:100660001124C901330FAA0BBB0B481759076A079E
:100670007B0708F48BC020913F012F5F20933F013F
:100680008C0D9D1DAE1DBF1D80933B0190933C01C1
:10069000A0933D01B0933E0179C0253088F5C0900C
:1006A0003B01D0903C01E0903D01F0903E014B01B8
:1006B0005C018C189D08AE08BF083091010188EEDE
:1006C00093E0389FA001399F500D1124CA01550FA6
:1006D000AA0BBB0B88169906AA06BB0608F456C0DF
:1006E0002F5F20933F018C0D9D1DAE1DBF1D80937C
:1006F0003B0190933C01A0933D01B0933E0146C065
:100700002930D0F520914601222321F02BB122601F
:100710002BB903C02BB12D7F2BB9C0903B01D090DA
:100720003C01E0903D01F0903E01AB01BC014C1951
:100730005D096E097F09209100018AEF289F9001D1
:100740001124C901330FAA0BBB0B481759076A07BD
:100750007B07E0F020913F012F5F20933F018C0D3C
:100760009D1DAE1DBF1D80933B0190933C01A09346
:100770003D01B0933E010AC010923F0160933B01DE
:1007800070933C0180933D0190933E0162960FB6B9
:10079000F894DEBF0FBECDBFDF91CF91FF90EF90F9
:1007A000DF90CF90BF90AF909F908F900895EF9281
:1007B000FF920F931F93CF93DF93CDB7DEB762976E
:1007C0000FB6F894DEBF0FBECDBF7C0180914C0107
:1007D000882321F08DE480933A011AC081E480934C
:1007E0003A0120914E0130914F01A9E8B8E80E94EA
:1007F000C00A96958795929582958F7089279F70EC
:10080000892799E0981B909302018F5F80930001E4
:10081000809102011F928F9305E111E01F930F93C6
:10082000CE0101969F938F930E94CF0A8091000181
:100830001F928F931F930F93CE0104969F938F93D4
:100840000E94CF0A809101011F928F931F930F93F3
:10085000CE0107969F938F930E94CF0A80914F01FC
:100860008F9380914E018F931F930F93CE010A9621
:100870009F938F930E94CF0A809149018F9380911B
:1008800048018F931F930F93CE010F969F938F93E1
:100890000E94CF0AF70180810FB6F894DEBF0FBE29
:1008A000CDBF882309F474C280914D01813009F4D1
:1008B000A2C038F0823009F438C1833009F4CFC1C6
:1008C00067C20E94EC0748E26FE280E00E94C50820
:1008D00065E080E00E94D80861E088E191E00E9434
:1008E000B40865E08EE10E94D80861E080913A0189
:1008F0000E942E0865E08AE20E94D80861E08DE13E
:1009000091E00E94B4086FE080E00E94D80861E0A6
:100910008FE191E00E94B4086FE08EE10E94D80858
:1009200061E0CE0101960E94B4086FE083E20E946C
:10093000D80861E084E291E00E94B40860E082E3BC
:100940000E94D80862E0CE010F960E94B4086FE0C2
:1009500082E30E94D80861E086E291E00E94B40838
:1009600069E182E30E94D80862E0CE010A960E9403
:10097000B40868E282E30E94D80861E08AE291E06C
:100980000E94B40869E180E00E94D80861E080E339
:1009900091E00E94B40869E18EE10E94D80861E00C
:1009A000CE0104960E94B40869E183E20E94D8084F
:1009B00061E084E291E00E94B40863E280E00E947A
:1009C000D80861E085E391E00E94B40863E28EE11B
:1009D0000E94D80861E0CE0107960E94B40863E245
:1009E00083E20E94D80861E084E291E00E94B408AA
:1009F0000E94DD08CDC10E94EC0748E26FE280E072
:100A00000E94C50865E080E00E94D80861E088E1A6
:100A100091E00E94B40865E08EE10E94D80861E090
:100A200080913A010E942E086FE080E00E94D80871
:100A300061E08FE191E00E94B4086FE08EE10E94D6
:100A4000D80861E0CE0101960E94B4086FE083E20D
:100A50000E94D80861E084E291E00E94B4086FE04F
:100A60008AE20E94D80861E08DE191E00E94B4081A
:100A700060E082E30E94D80862E0CE010F960E94F7
:100A8000B4086FE082E30E94D80861E086E291E05A
:100A90000E94B40869E182E30E94D80862E0CE01B6
:100AA0000A960E94B40868E282E30E94D80861E0D6
:100AB0008AE291E00E94B40869E180E00E94D808CF
:100AC00061E080E391E00E94B40869E18EE10E9458
:100AD000D80861E0CE0104960E94B40869E183E27F
:100AE0000E94D80861E084E291E00E94B40863E2C9
:100AF00080E00E94D80861E085E391E00E94B4089C
:100B000063E28EE10E94D80861E0CE0107960E9460
:100B1000B40863E283E20E94D80861E084E291E0D5
:100B20000E94B4080E94DD0833C10E94EC0748E22D
:100B30006FE280E00E94C50865E080E00E94D8086E
:100B400061E088E191E00E94B40865E08EE10E94D6
:100B5000D80861E080913A010E942E086FE080E0A1
:100B60000E94D80861E08FE191E00E94B4086FE034
:100B70008EE10E94D80861E0CE0101960E94B4087F
:100B80006FE083E20E94D80861E084E291E00E9475
:100B9000B40860E082E30E94D80862E0CE010F96BC
:100BA0000E94B4086FE082E30E94D80861E086E208
:100BB00091E00E94B40869E182E30E94D80862E0F3
:100BC000CE010A960E94B40868E282E30E94D80827
:100BD00061E08AE291E00E94B40869E180E00E944D
:100BE000D80861E080E391E00E94B40869E18EE1F9
:100BF0000E94D80861E0CE0104960E94B40869E121
:100C000083E20E94D80861E084E291E00E94B40887
:100C100069E18AE20E94D80861E08DE191E00E94DA
:100C2000B40863E280E00E94D80861E085E391E0C7
:100C30000E94B40863E28EE10E94D80861E0CE0110
:100C400007960E94B40863E283E20E94D80861E03C
:100C500084E291E00E94B4080E94DD0899C00E94DD
:100C6000EC0748E26FE280E00E94C50865E080E0A2
:100C70000E94D80861E088E191E00E94B40865E034
:100C80008EE10E94D80861E080913A010E942E080E
:100C90006FE080E00E94D80861E08FE191E00E945F
:100CA000B4086FE08EE10E94D80861E0CE010196A1
:100CB0000E94B4086FE083E20E94D80861E084E2F9
:100CC00091E00E94B40860E082E30E94D80862E0EC
:100CD000CE010F960E94B4086FE082E30E94D8080C
:100CE00061E086E291E00E94B40869E182E30E943B
:100CF000D80862E0CE010A960E94B40868E282E356
:100D00000E94D80861E08AE291E00E94B40869E19B
:100D100080E00E94D80861E080E391E00E94B4087E
:100D200069E18EE10E94D80861E0CE0104960E943C
:100D3000B40869E183E20E94D80861E084E291E0AE
:100D40000E94B40863E280E00E94D80861E085E375
:100D500091E00E94B40863E28EE10E94D80861E04D
:100D6000CE0107960E94B40863E283E20E94D8088D
:100D700061E084E291E00E94B40863E28AE20E94AA
:100D8000D80861E08DE191E00E94B4080E94DD087E
:100D9000F701908181E0911180E0F70180836296F4
:100DA0000FB6F894DEBF0FBECDBFDF91CF911F917C
:100DB0000F91FF90EF900895CF93DF93EC0188811E
:100DC0008823C1F1609178007091790080E090E013
:100DD0000E94040A9B01AC0160E871EC89E799E488
:100DE0000E94630920E030E04AE754E40E94F608DC
:100DF0000E94D50970934901609348016C3271409B
:100E0000B8F480914701813039F020914E01309142
:100E10004F012115310521F08FEF8093B4000AC0F6
:100E2000882311F0232B31F48DE48093B40002C0A9
:100E30001092B4001882DF91CF9108958FEF84B99A
:100E40008BE88AB994E79BB980E487B988B926E032
:100E50002093680080936C0090936D0092E094BDA5
:100E600023E025BD29EF27BD90936E0080937C0081
:100E700087EE80937A0010927B0010927E0083EAC6
:100E80008093B00085E08093B1001092B400789414
:100E90000E9494076091500170915101809152011C
:100EA000909153010E94AA028BE491E00E94D70323
:100EB0008AE491E00E94DC06EDCF98B19D7F98B95D
:100EC000662329F098B1986098B990E01FC098B156
:100ED000977F98B9FACF47E050E0491B5109282F76
:100EE00030E002C0359527954A95E2F720FF04C00F
:100EF00028B1206128B903C028B12F7E28B928B1B4
:100F0000206228B928B12F7D28B99F5F983018F347
:100F100088B1826088B9089560E00E945D070895F5
:100F200061E00E945D070895CF93DF9387B18260EF
:100F300087B987B1846087B987B1886087B987B17D
:100F4000806187B987B1806287B988B1846088B9C8
:100F500088B1826088B983EC99E00197F1F700C00D
:100F6000000088B18B7F88B98BE594E40197F1F795
:100F700000C0000088B1846088B988B18D7F88B9CD
:100F800081E20E948C0783E10E948C0786E00E9428
:100F90008C0782EC0E948C0780E20E948C0789E01B
:100FA0000E948C0780E80E948C0780E40E948C07D6
:100FB000C0E0D0E004C080E00E9490072196C83FC6
:100FC00091E0D907C0F388E00E948C078CE00E9472
:100FD0008C07DF91CF91089580E80E948C0780E410
:100FE0000E948C0710924C0310924D0380E090E019
:100FF00005C0FC01EC5AFE4F10820196883F21E0AB
:101000009207B8F30895262F26952695269590E009
:1010100034E5239F800D911D1124442379F06770DE
:1010200021E030E002C0220F331F6A95E2F7FC0195
:10103000EC5AFE4F8081282B20830895677021E0B1
:1010400030E002C0220F331F6A95E2F7FC01EC5A30
:10105000FE4F20958081282320830895EF92FF92F0
:101060000F931F93CF93DF93E82EF62E00E045C039
:101070002E2D30E020523109802F6F2D0E94920AD0
:10108000F901EE0FFF1FEE0FFF1FE20FF31FE80F36
:10109000F11DE859FF4FE491812F0E94920AF0E080
:1010A00002C0F595E7958A95E2F7E0FF0AC06091E6
:1010B0004D0380914C03610F41E0800F0E940308B3
:1010C00009C060914D0380914C03610F40E0800F97
:1010D0000E9403081F5F01C010E0212F30E0CE0105
:1010E000880F991F880F991F880F991F8C1B9D0BC4
:1010F000281739070CF4BCCF0F5F202F30E0CF2D1D
:10110000D0E0CE01880F991F880F991F8C0F9D1F6B
:10111000281739070CF3ECE4F3E08F2D880F880FC4
:101120008F0D9081890F8F5F8083843570F01092CE
:101130004C03EDE4F3E08F2D880F880F880F982F74
:101140009F198081890F8F5F808380914D03803349
:1011500020F010924C0310924D03DF91CF911F911C
:101160000F91FF90EF9008951F93CF93DF93EC01C1
:10117000162F04C02196612F0E942E0888818111AC
:10118000F9CFDF91CF911F9108951F93CF93DF93F4
:10119000C82F162FD42F06C041E06C2F812F0E943C
:1011A0000308CF5FDC17C0F7DF91CF911F9108953F
:1011B00080934C0360934D030895CF93DF9380E8B1
:1011C0000E948C0780E40E948C07C0E0D0E007C03A
:1011D000FE01EC5AFE4F80810E9490072196C83F85
:1011E00081E0D807A8F3DF91CF9108955058BB272D
:1011F000AA270E940E090C94580A0E944A0A38F045
:101200000E94510A20F039F49F3F19F426F40C94FF
:10121000470A0EF4E095E7FB0C94410AE92F0E947F
:10122000690A58F3BA17620773078407950720F015
:1012300079F4A6F50C948B0A0EF4E0950B2EBA2FD8
:10124000A02D0B01B90190010C01CA01A0011124CC
:10125000FF27591B99F0593F50F4503E68F11A1678
:10126000F040A22F232F342F4427585FF3CF469509
:1012700037952795A795F0405395C9F77EF41F162B
:10128000BA0B620B730B840BBAF09150A1F0FF0FF5
:10129000BB1F661F771F881FC2F70EC0BA0F621FE1
:1012A000731F841F48F4879577956795B795F795D1
:1012B0009E3F08F0B0CF9395880F08F09927EE0F66
:1012C0009795879508950E9477090C94580A0E9473
:1012D000510A58F00E944A0A40F029F45F3F29F071
:1012E0000C94410A51110C948C0A0C94470A0E94E8
:1012F000690A68F39923B1F3552391F3951B550BB4
:10130000BB27AA2762177307840738F09F5F5F4FD8
:10131000220F331F441FAA1FA9F335D00E2E3AF017
:10132000E0E832D091505040E695001CCAF72BD02F
:10133000FE2F29D0660F771F881FBB1F2617370780
:101340004807AB07B0E809F0BB0B802DBF01FF27B2
:1013500093585F4F3AF09E3F510578F00C94410A44
:101360000C948C0A5F3FE4F3983ED4F3869577950E
:101370006795B795F7959F5FC9F7880F911D96956B
:10138000879597F90895E1E0660F771F881FBB1FC7
:10139000621773078407BA0720F0621B730B840B74
:1013A000BA0BEE1F88F7E09508950E94710A88F045
:1013B0009F5798F0B92F9927B751B0F0E1F0660F19
:1013C000771F881F991F1AF0BA95C9F714C0B1305A
:1013D00091F00E948B0AB1E008950C948B0A672F5C
:1013E000782F8827B85F39F0B93FCCF38695779589
:1013F0006795B395D9F73EF4909580957095619572
:101400007F4F8F4F9F4F0895E89409C097FB3EF49C
:1014100090958095709561957F4F8F4F9F4F992341
:10142000A9F0F92F96E9BB279395F69587957795BF
:101430006795B795F111F8CFFAF4BB0F11F460FF7F
:101440001BC06F5F7F4F8F4F9F4F16C0882311F0D7
:1014500096E911C0772321F09EE8872F762F05C0EB
:10146000662371F096E8862F70E060E02AF09A9586
:10147000660F771F881FDAF7880F9695879597F97B
:10148000089597F99F6780E870E060E008959FEF06
:1014900080EC089500240A9416161706180609060B
:1014A000089500240A9412161306140605060895DA
:1014B000092E0394000C11F4882352F0BB0F40F462
:1014C000BF2B11F460FF04C06F5F7F4F8F4F9F4FA2
:1014D000089557FD9058440F551F59F05F3F71F024
:1014E0004795880F97FB991F61F09F3F79F087958B
:1014F0000895121613061406551FF2CF4695F1DF14
:1015000008C0161617061806991FF1CF86957105A3
:10151000610508940895E894BB2766277727CB01D7
:1015200097F90895991B79E004C0991F961708F060
:10153000961B881F7A95C9F780950895A1E21A2E07
:10154000AA1BBB1BFD010DC0AA1FBB1FEE1FFF1F67
:10155000A217B307E407F50720F0A21BB30BE40BB7
:10156000F50B661F771F881F991F1A9469F76095FE
:101570007095809590959B01AC01BD01CF010895B8
:10158000A29FB001B39FC001A39F700D811D1124C4
:10159000911DB29F700D811D1124911D0895AEE023
:1015A000B0E0E5EDFAE00C94900D0D891E8986E01F
:1015B0008C831A8309838FEF9FE79E838D83AE010F
:1015C000475E5F4F6F89788DCE0101960E94F10AC8
:1015D000EF81F885E00FF11F10822E96E4E00C9465
:1015E000AC0DABE0B0E0E7EFFAE00C94820D6C01DB
:1015F0007B018A01FC0117821682838181FFCCC1A5
:10160000CE0101963C01F6019381F70193FD85918E
:1016100093FF81917F01882309F4BAC1853239F49F
:1016200093FD859193FF81917F01853229F4B60165
:1016300090E00E94E80CE7CF912C212C312CFFE1A7
:10164000F315D8F08B3279F038F4803279F08332A8
:10165000A1F4232D20611DC08D3261F0803369F427
:10166000232D216016C0832D8260382EE32DE46087
:101670003E2E2AC0F32DF8601DC037FC2DC020ED92
:10168000280F2A3040F08E32B9F436FC81C1232D68
:101690002064322E19C036FE06C08AE0989E200DC6
:1016A0001124922E11C0EAE02E9E200D1124222E2C
:1016B000F32DF0623F2E08C08C3621F4832D806814
:1016C000382E02C0883641F4F70193FD859193FFCF
:1016D00081917F018111B3CF982F9F7D95549330D5
:1016E00028F40C5F1F4F9FE399830DC0833631F0C0
:1016F000833771F0833509F059C021C0F80180812A
:1017000089830E5F1F4F88248394912C530113C04B
:101710002801F2E04F0E511CF801A080B18036FE86
:1017200003C0692D70E002C06FEF7FEFC5010E941A
:10173000DD0C4C018201F32DFF773F2E16C02801EE
:1017400022E0420E511CF801A080B18036FE03C099
:10175000692D70E002C06FEF7FEFC5010E94D20CCF
:101760004C01F32DF0683F2E820133FC1BC0822D0B
:1017700090E088169906B0F4B60180E290E00E94ED
:10178000E80C2A94F4CFF50137FC859137FE81915E
:101790005F01B60190E00E94E80C21102A9421E03C
:1017A000821A91088114910471F7E8C0843611F00F
:1017B000893641F5F80137FE07C060817181828169
:1017C00093810C5F1F4F08C060817181072E000C50
:1017D000880B990B0E5F1F4FF32DFF763F2E97FF5F
:1017E00009C090958095709561957F4F8F4F9F4F61
:1017F000F0683F2E2AE030E0A3010E94240D882EDD
:10180000861845C0853731F4232D2F7EB22E2AE06D
:1018100030E025C0932D997FB92E8F36C1F018F492
:10182000883579F0B5C0803719F0883721F0B0C01D
:10183000E92FE061BE2EB4FE0DC0FB2DF460BF2E7B
:1018400009C034FE0AC0292F2660B22E06C028E047
:1018500030E005C020E130E002C020E132E0F801D4
:10186000B7FE07C060817181828193810C5F1F4F39
:1018700006C06081718180E090E00E5F1F4FA30180
:101880000E94240D882E8618FB2DFF773F2E36FEF2
:101890000DC0232D2E7FA22E891458F434FE0BC0C8
:1018A00032FC09C0832D8E7EA82E05C0B82CA32C37
:1018B00003C0B82C01C0B92CA4FE0FC0FE01E80D76
:1018C000F11D8081803321F49A2D997EA92E09C0C3
:1018D000A2FE06C0B394B39404C08A2D867809F0A2
:1018E000B394A3FC11C0A0FE06C0B21488F4280C67
:1018F000922C9B180EC0B21460F4B60180E290E006
:101900000E94E80CB394F7CFB21418F42B1802C05D
:10191000982C212CA4FE10C0B60180E390E00E9418
:10192000E80CA2FE17C0A1FC03C088E790E002C04B
:1019300088E590E0B6010CC08A2D867859F0A1FEAA
:1019400002C08BE201C080E2A7FC8DE2B60190E00C
:101950000E94E80C891438F4B60180E390E00E94FC
:10196000E80C9A94F7CF8A94F301E80DF11D808179
:10197000B60190E00E94E80C8110F5CF222009F416
:1019800042CEB60180E290E00E94E80C2A94F6CFA5
:10199000F6018681978102C08FEF9FEF2B96E2E1DF
:1019A0000C949E0DFC010590615070400110D8F719
:1019B000809590958E0F9F1F0895FC016150704097
:1019C00001900110D8F7809590958E0F9F1F089574
:1019D0000F931F93CF93DF93FB01238121FD03C05E
:1019E0008FEF9FEF2CC022FF16C0468157812481C4
:1019F00035814217530744F4A081B1819D012F5FC7
:101A00003F4F318320838C93268137812F5F3F4F57
:101A10003783268314C08B01EC01FB010084F18520
:101A2000E02D0995892BE1F6D80116968D919C91B0
:101A30001797019617969C938E931697CE01DF9178
:101A4000CF911F910F910895FA01AA27283051F1E3
:101A5000203181F1E8946F936E7F6E5F7F4F8F4FDF
:101A60009F4FAF4FB1E03ED0B4E03CD0670F781F3E
:101A7000891F9A1FA11D680F791F8A1F911DA11D23
:101A80006A0F711D811D911DA11D20D009F468945C
:101A90003F912AE0269F11243019305D3193DEF604
:101AA000CF010895462F4770405D4193B3E00FD0BA
:101AB000C9F7F6CF462F4F70405D4A3318F0495DA5
:101AC00031FD4052419302D0A9F7EACFB4E0A69588
:101AD0009795879577956795BA95C9F700976105AA
:101AE000710508959B01AC010A2E06945795479500
:101AF00037952795BA95C9F7620F731F841F951FF5
:101B0000A01D08952F923F924F925F926F927F9205
:101B10008F929F92AF92BF92CF92DF92EF92FF92FD
:101B20000F931F93CF93DF93CDB7DEB7CA1BDB0BA9
:101B30000FB6F894DEBF0FBECDBF09942A8839884E
:101B400048885F846E847D848C849B84AA84B98455
:101B5000C884DF80EE80FD800C811B81AA81B98161
:101B6000CE0FD11D0FB6F894DEBF0FBECDBFED0175
:061B70000895F894FFCF78
:101B76000101010F000700030001000001F00070E1
:101B860000300010002575004D6F646F003C005456
:101B96002E56640073006C757800632F6D696E00B5
:0A1BA600542E566D00542E416D00C0
:00000001FF
